:020000020000FC
:0200000004C03A
:0200040022C018
:1000080014C00FE50DBF04E00EBF00E201BB08E01D
:1000180002BB07E004BB08E705BB0FEF07BB00EC1A
:100028000BBF03E005BF7894FFCF639560FD03C065
:1000380060FF04C0F9CF08E202BB189508E002BBD4
:1000480018959B9B07C09C9B1EC09D9B35C09E9B83
:100058004CC01895A89AA99AAA9AA8989B9B0E94FE
:100068009400A89AA99AAA9AA9989B9B0E9497007B
:10007800A89AA99AAA9AAA989B9B0E949A00A898BB
:10008800A998AA984BC0A89AA99AAA9AA8989C9B9A
:100098000E949D00A89AA99AAA9AA9989C9B0E9436
:1000A800A000A89AA99AAA9AAA989C9B0E94A30021
:1000B800A898A998AA9832C0A89AA99AAA9AA8987A
:1000C8009D9B0E94A600A89AA99AAA9AA9989D9B66
:1000D8000E94A900A89AA99AAA9AAA989D9B0E94E8
:1000E800AC00A898A998AA9819C0A89AA99AAA9AF7
:1000F800A8989E9B0E94AF00A89AA99AAA9AA99824
:100108009E9B0E94B200A89AA99AAA9AAA989E9B16
:100118000E94B500A898A998AA9800C038BB18955D
:1001280021E036E0089522E03BE5089523E03FE42E
:10013800089524E036E6089525E03DE6089526E092
:100148003DE7089527E037E0089528E03FE7089560
:1001580029E03FE608952AE037E7089520E03FE3E5
:0801680008952BE033E7089530
:00000001FF
