:020000020000FC
:0200000004C03A
:0200040022C018
:1000080014C00FE50DBF04E00EBF00E201BB08E01D
:1000180002BB07E004BB08E705BB0FEF07BB00EC1A
:100028000BBF03E005BF7894FFCF639560FD03C065
:1000380060FF04C0F9CF08E202BB189508E002BBD4
:10004800189573B373FF07C074FF17C075FF1FC0FF
:1000580076FF27C0189547E045BBA8989C9B0E944F
:100068006100A89AA9989C9B0E946400A99AAA98E2
:100078009C9B0E946700AA9A1EC070FF0E946A009B
:1000880071FD0E946D0072FF0E94700014C070FF25
:100098000E94730071FF0E94760072FF0E9479002F
:1000A8000AC070FF0E946A0071FF0E946A0072FF16
:1000B8000E946A0000C038BB189521E036E0089518
:1000C80022E03BE5089523E03FE4089524E036E686
:1000D800089525E03DE6089526E03DE7089527E0E8
:1000E80037E0089528E03FE7089529E03FE60895BE
:00000001FF
